:100000000C9436000C945E000C945E000C945E0020
:100010000C945E000C945E000C945E000C945E00E8
:100020000C945E000C945E000C945E000C945E00D8
:100030000C945E000C945E000C945E000C945E00C8
:100040000C94EF020C945E000C945F030C94390343
:100050000C945E000C945E000C945E000C945E00A8
:100060000C945E000C945E0007045C0511241FBE16
:10007000CFEFD8E0DEBFCDBF11E0A0E0B1E0E2EE0F
:10008000F5E102C005900D92A433B107D9F721E044
:10009000A4E3B1E001C01D92AE3EB207E1F710E06B
:1000A000C5E3D0E004C02197FE010E94CA07C43313
:1000B000D107C9F70E949D040C94E40A0C94000037
:1000C0003FB7F8948091390190913A01A0913B019A
:1000D000B0913C0126B5A89B05C02F3F19F00196B1
:1000E000A11DB11D3FBFBA2FA92F982F8827820FBE
:1000F000911DA11DB11DBC01CD0142E0660F771F0E
:10010000881F991F4A95D1F70895CF92DF92EF92F9
:10011000FF920F931F93CF93DF936C017A018B01B2
:10012000C0E0D0E0CE15DF0581F0D8016D918D01E2
:10013000D601ED91FC910190F081E02DC601099569
:10014000892B11F02196EECF7E01C701DF91CF916F
:100150001F910F91FF90EF90DF90CF900895089539
:1001600080E090E00895FC01538D448D252F30E010
:10017000842F90E0821B930B541710F0CF960895B4
:1001800001970895FC01918D828D981761F0828D01
:10019000DF01A80FB11D5D968C91928D9F5F9F73BB
:1001A000928F90E008958FEF9FEF0895FC01918D5D
:1001B000828D981731F0828DE80FF11D858D90E0CA
:1001C00008958FEF9FEF0895FC01918D228D892F67
:1001D00090E0805C9F4F821B91098F73992708954F
:1001E0008DE391E00E94E40021E0892B09F420E0F6
:1001F000822F0895FC01848DDF01A80FB11DA35A41
:10020000BF4F2C91848D90E001968F739927848F36
:10021000A689B7892C93A089B1898C918370806459
:100220008C93938D848D981306C00288F389E02DFA
:1002300080818F7D80830895EF92FF920F931F93AB
:10024000CF93DF93EC0181E0888F9B8D8C8D981389
:1002500005C0E889F989808185FD26C0F62E0B8DC1
:1002600010E00F5F1F4F0F731127E02E8C8DE812E7
:100270000CC00FB607FCFACFE889F989808185FFA9
:10028000F5CFCE010E94FA00F1CF8B8DFE01E80F71
:10029000F11DE35AFF4FF0829FB7F8940B8FEA8964
:1002A000FB89808180620AC09FB7F894EE89FF893C
:1002B0006083E889F98980818370806480839FBF2F
:1002C00081E090E0DF91CF911F910F91FF90EF902F
:1002D0000895CF93DF93EC01888D8823C9F0EA89D4
:1002E000FB89808185FD05C0A889B9898C9186FD2F
:1002F0000FC00FB607FCF5CF808185FFF2CFA8892C
:10030000B9898C9185FFEDCFCE010E94FA00E7CF2D
:10031000DF91CF91089580E090E0892B29F00E9431
:10032000F00081110C940000089580E480937C001B
:1003300080917A00806480937A0080917A0086FDB3
:10034000FCCF609178008091790070E0782B072EC7
:10035000000C880B990B0E94130620E030EC4FE74D
:1003600054E40E943D0820E030E040EA50E40E945E
:1003700072060895009769F0FC0101900020E9F7EA
:100380003197AF01481B590BBC018DE391E00C94F0
:10039000850080E090E008952F923F924F925F9207
:1003A0006F927F928F929F92AF92BF92CF92DF9285
:1003B000EF92FF920F931F93CF93DF93CDB7DEB7EA
:1003C000A4970FB6F894DEBF0FBECDBF4B015C0102
:1003D000F42E9B01AC010E94E308882319F08CE104
:1003E00091E027C024013501E89477F82FEF3FEF23
:1003F0004FE75FE7C301B2010E94E30881110DC01E
:100400002FEF3FEF4FE75FE7C301B2010E940C06F9
:1004100018161CF480E291E00CC02FEF3FEF4FE77D
:100420005FE4C501B4010E94DE0818162CF484E2D2
:1004300091E00E94BA01B8C02FEF3FEF4FE75FECA9
:10044000C501B4010E940C0687FDF1CF20E030E029
:10045000A901C501B4010E940C0687FF0BC06DE223
:100460008DE391E00E941C013C01B7FAB094B7F80B
:10047000B09402C0612C712C10E060E070E080E06C
:100480009FE3F11641F020E030E040E251E40E94A9
:100490003D081F5FF6CFA50194010E94D1074B01D3
:1004A0005C010E94AF086AA3C72ED82EE92E19A2BC
:1004B000262F372F482F592F8E010F5D1F4F0BA36B
:1004C0001CA39AE0292E312C412C512CCA01B901D0
:1004D000A20191010E949907605DF80162938F016A
:1004E000211531054105510589F7CF010E94BA0157
:1004F0008301080F191FFF2009F455C06AA17C2D44
:100500008D2D9E2D0E9411069B01AC01C501B401E9
:100510000E94D0074B015C016EE28DE391E00E94E6
:100520001C01080F191F8AE0282E312C412C512C58
:1005300020E030E040E251E4C501B4010E947206BF
:100540004B015C010E94AF089B0140E050E019A202
:10055000CBA0DCA0762E3AA3642EE52ECA01B90109
:10056000A20191010E949907605DF60162936F01FB
:10057000211531054105510589F7CF010E94BA01C6
:10058000080F191F672D7AA1862D9E2D0E94110636
:100590009B01AC01C501B4010E94D0074B015C0175
:1005A000FA94F110C5CFC801A4960FB6F894DEBF37
:1005B0000FBECDBFDF91CF911F910F91FF90EF90B4
:1005C000DF90CF90BF90AF909F908F907F906F9073
:1005D0005F904F903F902F9008950E94CF0A1F92F6
:1005E0000F920FB60F9211242F933F938F939F93E7
:1005F000AF93BF938091350190913601A09137015F
:10060000B09138013091340123E0230F2D3720F4CD
:100610000196A11DB11D05C026E8230F0296A11D5C
:10062000B11D209334018093350190933601A0933E
:100630003701B09338018091390190913A01A0912E
:100640003B01B0913C010196A11DB11D8093390180
:1006500090933A01A0933B01B0933C01BF91AF91BD
:100660009F918F913F912F910F900FBE0F901F90F0
:1006700018951F920F920FB60F9211242F933F934C
:100680004F935F936F937F938F939F93AF93BF939A
:10069000EF93FF938DE391E00E94FA00FF91EF91B9
:1006A000BF91AF919F918F917F916F915F914F918A
:1006B0003F912F910F900FBE0F901F9018951F9292
:1006C0000F920FB60F9211242F938F939F93EF9356
:1006D000FF93E0914D01F0914E018081E091530133
:1006E000F091540182FD12C09081809156018F5F7C
:1006F0008F7320915701821751F0E0915601F0E07D
:10070000E35CFE4F958F8093560101C08081FF917D
:10071000EF919F918F912F910F900FBE0F901F908F
:100720001895EF92FF920F931F93CF93DF93EC01F5
:100730007B018A0188819981009729F02A813B8178
:1007400024173507F8F4B8016F5F7F4F0E94090A3C
:10075000009759F0998388831B830A832C813D81FC
:10076000232B81F4FC0110820DC0888199810097B0
:1007700011F00E948009198218821D821C821B823E
:100780001A8207C01D830C83B701888199810E945A
:10079000DD0ACE01DF91CF911F910F91FF90EF9075
:1007A0000895CF93DF93EC01FB0186179707B1F013
:1007B000608171816115710529F0448155810E9424
:1007C00091030CC088819981009711F00E948009E3
:1007D000198218821D821C821B821A82CE01DF912F
:1007E000CF910895FC01118210821382128215822A
:1007F00014826115710551F0FB0101900020E9F7A9
:100800003197AF01461B570B0C9491030895CF927B
:10081000DF92EF92FF92CF93DF93CDB7DEB762976F
:100820000FB6F894DEBF0FBECDBFEDE3F1E013824B
:10083000128288EE93E0A0E0B0E084839583A683E3
:10084000B7838EE091E09183808385EC90E095877B
:10085000848784EC90E09787868780EC90E0918B8A
:10086000808B81EC90E0938B828B82EC90E0958B77
:10087000848B86EC90E0978B868B118E128E138E74
:10088000148E0E94B5056B017C0168E271E0CE0117
:100890000D960E94F2036CE271E0CE0107960E9471
:1008A000F2031A8219821C821B821E821D82BE01E3
:1008B000695F7F4FCE0101960E94D10363E371E02F
:1008C0008AED91E00E94F203BE016F5F7F4F8AEDD7
:1008D00091E00E94D103C701B6012FEF3FEF40E046
:1008E00050E00E9430077093E1016093E00189813C
:1008F0009A810E94800963E371E084EE91E00E9496
:10090000F203BE01635F7F4F84EE91E00E94D1034A
:100910008F8198850E9480098D859E850E9480091F
:1009200062960FB6F894DEBF0FBECDBFDF91CF91B8
:10093000FF90EF90DF90CF900895789484B5826017
:1009400084BD84B5816084BD85B5826085BD85B573
:10095000816085BD80916E00816080936E001092F1
:10096000810080918100826080938100809181006C
:1009700081608093810080918000816080938000FD
:100980008091B10084608093B1008091B00081605B
:100990008093B00080917A00846080937A00809187
:1009A0007A00826080937A0080917A0081608093DF
:1009B0007A0080917A00806880937A001092C1005A
:1009C000E0914D01F0914E0182E08083E091490178
:1009D000F0914A011082E0914B01F0914C018FECB3
:1009E000808310925501E0915101F091520186E00F
:1009F0008083E0914F01F09150018081806180837C
:100A0000E0914F01F0915001808188608083E091F6
:100A10004F01F0915001808180688083E0914F0107
:100A2000F091500180818F7D808385E991E09093E2
:100A3000E3018093E20180E090E00E94950142E0B2
:100A40000E94CC0181E391E00E94BA01E091E201B1
:100A5000F091E30180E090E0099542E00E94CC0132
:100A600081E391E00E94BA010E9460004B015C01A9
:100A700088EEC82E83E0D82EE12CF12C0E94600075
:100A8000DC01CB0188199909AA09BB09883E93406A
:100A9000A105B10598F321E0C21AD108E108F108D7
:100AA00088EE880E83E0981EA11CB11CC114D104ED
:100AB000E104F10419F7CACFCF93DF93CAEDD1E077
:100AC0008A859B850E94800988819981DF91CF91D9
:100AD0000C9480098F929F92AF92BF92CF92DF9237
:100AE000EF92FF92CF93DF93EC01688179818A8145
:100AF0009B81611571058105910521F464E279ED11
:100B00008BE597E02DE133EF41E050E00E943007A4
:100B100049015A019B01AC01A7EAB1E40E944F07C9
:100B20006B017C01ACEEB4EFA50194010E945D075E
:100B3000DC01CB018C0D9D1DAE1DBF1DB7FF03C099
:100B40000197A109B04888839983AA83BB83BC011C
:100B5000CD019F77DF91CF91FF90EF90DF90CF9005
:100B6000BF90AF909F908F9008958F929F92AF9279
:100B7000BF92CF92DF92EF92FF926091000170914D
:100B800001018091020190910301611571058105B8
:100B9000910521F464E279ED8BE597E02DE133EFE7
:100BA00041E050E00E94300749015A019B01AC012D
:100BB000A7EAB1E40E944F076B017C01ACEEB4EFF1
:100BC000A50194010E945D07DC01CB018C0D9D1DE8
:100BD000AE1DBF1DB7FF03C00197A109B0488093A8
:100BE000000190930101A0930201B0930301BC01A5
:100BF000CD019F77FF90EF90DF90CF90BF90AF90A7
:100C00009F908F90089560930001709301018093ED
:100C100002019093030108950E944E0608F481E0BA
:100C20000895E89409C097FB3EF4909580957095DF
:100C300061957F4F8F4F9F4F9923A9F0F92F96E928
:100C4000BB279395F695879577956795B795F1119D
:100C5000F8CFFAF4BB0F11F460FF1BC06F5F7F4F3A
:100C60008F4F9F4F16C0882311F096E911C077234C
:100C700021F09EE8872F762F05C0662371F096E855
:100C8000862F70E060E02AF09A95660F771F881F24
:100C9000DAF7880F9695879597F90895990F0008C8
:100CA000550FAA0BE0E8FEEF16161706E807F9073E
:100CB000C0F012161306E407F50798F0621B730BD9
:100CC000840B950B39F40A2661F0232B242B252B5A
:100CD00021F408950A2609F4A140A6958FEF811DFD
:100CE000811D08950E9485060C94F6060E94E80670
:100CF00038F00E94EF0620F0952311F00C94DF06E7
:100D00000C94E50611240C942A070E94070770F33F
:100D1000959FC1F3950F50E0551F629FF001729FA0
:100D2000BB27F00DB11D639FAA27F00DB11DAA1FAF
:100D3000649F6627B00DA11D661F829F2227B00DFC
:100D4000A11D621F739FB00DA11D621F839FA00D87
:100D5000611D221F749F3327A00D611D231F849FD7
:100D6000600D211D822F762F6A2F11249F5750402E
:100D70009AF0F1F088234AF0EE0FFF1FBB1F661FA9
:100D8000771F881F91505040A9F79E3F510580F072
:100D90000C94DF060C942A075F3FE4F3983ED4F3EB
:100DA000869577956795B795F795E7959F5FC1F716
:100DB000FE2B880F911D9695879597F9089597F9C1
:100DC0009F6780E870E060E008959FEF80EC0895F1
:100DD00000240A941616170618060906089500241A
:100DE0000A9412161306140605060895092E039494
:100DF000000C11F4882352F0BB0F40F4BF2B11F408
:100E000060FF04C06F5F7F4F8F4F9F4F089557FD66
:100E10009058440F551F59F05F3F71F04795880F68
:100E200097FB991F61F09F3F79F0879508951216FF
:100E300013061406551FF2CF4695F1DF08C01616AB
:100E400017061806991FF1CF86957105610508945C
:100E50000895E894BB2766277727CB0197F9089573
:100E6000052E97FB1EF400940E94470757FD07D0FC
:100E70000E94990707FC03D04EF40C944707509545
:100E80004095309521953F4F4F4F5F4F0895909576
:100E90008095709561957F4F8F4F9F4F08950E9469
:100EA000BB07A59F900DB49F900DA49F800D911D31
:100EB00011240895B7FF0C944F070E944F07821B1F
:100EC000930B08952F923F924F925F926F927F9271
:100ED0008F929F92AF92BF92CF92DF92EF92FF924A
:100EE0000F931F93CF93DF93CDB7DEB7CA1BDB0BF6
:100EF0000FB6F894DEBF0FBECDBF09942A8839889B
:100F000048885F846E847D848C849B84AA84B984A1
:100F1000C884DF80EE80FD800C811B81AA81B981AD
:100F2000CE0FD11D0FB6F894DEBF0FBECDBFED01C1
:100F30000895A1E21A2EAA1BBB1BFD010DC0AA1F1A
:100F4000BB1FEE1FFF1FA217B307E407F50720F032
:100F5000A21BB30BE40BF50B661F771F881F991FAD
:100F60001A9469F760957095809590959B01AC01F6
:100F7000BD01CF010895A29FB001B39FC001A39FFF
:100F8000700D811D1124911DB29F700D811D1124C2
:100F9000911D0895EE0FFF1F0590F491E02D099427
:100FA0005058BB27AA270E94E8070C94F6060E9417
:100FB000E80638F00E94EF0620F039F49F3F19F45C
:100FC00026F40C94E5060EF4E095E7FB0C94DF069E
:100FD000E92F0E94070758F3BA17620773078407BF
:100FE000950720F079F4A6F50C9429070EF4E09506
:100FF0000B2EBA2FA02D0B01B90190010C01CA01D3
:10100000A0011124FF27591B99F0593F50F4503E7D
:1010100068F11A16F040A22F232F342F4427585F6F
:10102000F3CF469537952795A795F0405395C9F787
:101030007EF41F16BA0B620B730B840BBAF091503F
:10104000A1F0FF0FBB1F661F771F881FC2F70EC0DE
:10105000BA0F621F731F841F48F4879577956795B1
:10106000B795F7959E3F08F0B0CF9395880F08F09D
:101070009927EE0F9795879508950E9451080C9433
:10108000F6060E94EF0658F00E94E80640F029F4A8
:101090005F3F29F00C94DF0651110C942A070C9441
:1010A000E5060E94070768F39923B1F3552391F3EE
:1010B000951B550BBB27AA2762177307840738F0C7
:1010C0009F5F5F4F220F331F441FAA1FA9F335D024
:1010D0000E2E3AF0E0E832D091505040E695001CD8
:1010E000CAF72BD0FE2F29D0660F771F881FBB1F92
:1010F000261737074807AB07B0E809F0BB0B802D70
:10110000BF01FF2793585F4F3AF09E3F510578F09B
:101110000C94DF060C942A075F3FE4F3983ED4F367
:10112000869577956795B795F7959F5FC9F7880F6F
:10113000911D9695879597F90895E1E0660F771FC1
:10114000881FBB1F621773078407BA0720F0621B52
:10115000730B840BBA0BEE1F88F7E09508950E947D
:101160000F0788F09F5798F0B92F9927B751B0F023
:10117000E1F0660F771F881F991F1AF0BA95C9F71B
:1011800014C0B13091F00E942907B1E008950C9489
:101190002907672F782F8827B85F39F0B93FCCF33C
:1011A000869577956795B395D9F73EF49095809598
:1011B000709561957F4F8F4F9F4F08950E944E0607
:1011C00008F48FEF08950E944E06880B990B08953E
:1011D0000F931F93CF93DF938230910510F482E039
:1011E00090E0E091EC01F091ED0120E030E0A0E032
:1011F000B0E0309719F14081518102811381481785
:101200005907C8F08417950769F4109731F01296C2
:101210000C93129713961C9327C00093EC01109324
:10122000ED0122C02115310519F04217530718F4BA
:101230009A01BD01EF01DF01F801DBCF2115310576
:10124000F9F0281B390B2430310580F48A819B8109
:101250006115710521F0FB019383828304C0909393
:10126000ED018093EC01FE01329644C0FE01E20FD5
:10127000F31F8193919322503109398328833AC017
:101280002091EA013091EB01232B41F420910601DA
:10129000309107013093EB012093EA012091040182
:1012A000309105012115310541F42DB73EB740912C
:1012B000080150910901241B350BE091EA01F091DE
:1012C000EB01E217F307A0F42E1B3F0B2817390799
:1012D00078F0AC014E5F5F4F2417350748F04E0F92
:1012E0005F1F5093EB014093EA018193919302C0F9
:1012F000E0E0F0E0CF01DF91CF911F910F910895D1
:10130000CF93DF93009709F481C0FC0132971382D9
:101310001282A091EC01B091ED01109781F420812F
:101320003181820F931F2091EA013091EB01281740
:10133000390751F5F093EB01E093EA0167C0ED0145
:1013400020E030E0CE17DF0740F44A815B819E0148
:1013500041155105F1F0EA01F5CFD383C2834081F5
:101360005181840F951FC817D90759F48881998135
:10137000840F951F0296918380838A819B8193833A
:1013800082832115310529F4F093ED01E093EC01FE
:101390003DC0E901FB83EA8349915991C40FD51FF0
:1013A000EC17FD0761F480819181840F951F0296EF
:1013B000E90199838883828193819B838A83E0E01A
:1013C000F0E012968D919C911397009719F0FD0112
:1013D000DC01F7CF8D919C9111979D012E5F3F4FBE
:1013E000820F931F2091EA013091EB0128173907F2
:1013F00069F4309729F41092ED011092EC0102C0CB
:1014000013821282B093EB01A093EA01DF91CF9196
:101410000895A0E0B0E0EFE0FAE00C946607EC017C
:10142000009721F4CB010E94E808B4C0FC01E60F4C
:10143000F71F9C0122503109E217F30708F4A8C0F6
:10144000D9010D911C91119706171707B0F00530BF
:10145000110508F49BC0C80104978617970708F484
:1014600095C002501109061B170B019311936D9340
:101470007C93CF010E94800989C05B01A01AB10A48
:101480004C01800E911EA091EC01B091ED01612CF8
:10149000712CE12CF12C109709F446C08D919C9190
:1014A0001197A815B905B1F56C0142E0C40ED11C25
:1014B000CA14DB0478F14C018A189B08640142E0ED
:1014C000C40ED11C1296BC9012971396AC91B5E045
:1014D000CB16D10440F0B282A38391828082D901DD
:1014E0006D937C9309C00E5F1F4F800F911FF90110
:1014F00091838083EB2DFA2FE114F10431F0D701B1
:101500001396FC93EE93129741C0F093ED01E09394
:10151000EC013CC06816790608F43C017D01129686
:101520000D90BC91A02DB7CF8091EA019091EB0175
:1015300088169906E1F466167706C8F480910401CE
:1015400090910501009741F48DB79EB74091080135
:1015500050910901841B950BE817F907C8F4F09323
:10156000EB01E093EA01F901718360830FC0CB01C5
:101570000E94E8087C01009759F0A801BE010E9472
:10158000D40ACE010E948009C70104C0CE0102C066
:1015900080E090E0CDB7DEB7EEE00C94820781E00A
:1015A00090E0F8940C94E40AFB01DC0102C0019085
:1015B0000D9241505040D8F70895FB01DC01019095
:1015C0000D920020E1F7089510E0C5E3D0E004C0DB
:1015D000FE010E94CA072196C633D107C9F7F894C5
:0215E000FFCF3B
:1015E200010000000000EE018000000000001C016C
:1015F2008500B3006901E400C200D6006E616E008E
:10160200696E66006F766600C2B043006C6D33355A
:04161200000D0A00BD
:00000001FF
